{
  "_format": "hh-sol-artifact-1",
  "contractName": "ChogArtBadge",
  "sourceName": "contracts/ChogArtBadge.sol",
  "abi": [
    {
      "inputs": [
        {
          "internalType": "string",
          "name": "name",
          "type": "string"
        },
        {
          "internalType": "string",
          "name": "symbol",
          "type": "string"
        },
        {
          "internalType": "string",
          "name": "baseTokenURI",
          "type": "string"
        }
      ],
      "stateMutability": "nonpayable",
      "type": "constructor"
    },
    {
      "inputs": [
        {
          "internalType": "address",
          "name": "sender",
          "type": "address"
        },
        {
          "internalType": "uint256",
          "name": "tokenId",
          "type": "uint256"
        },
        {
          "internalType": "address",
          "name": "owner",
          "type": "address"
        }
      ],
      "name": "ERC721IncorrectOwner",
      "type": "error"
    },
    {
      "inputs": [
        {
          "internalType": "address",
          "name": "operator",
          "type": "address"
        },
        {
          "internalType": "uint256",
          "name": "tokenId",
          "type": "uint256"
        }
      ],
      "name": "ERC721InsufficientApproval",
      "type": "error"
    },
    {
      "inputs": [
        {
          "internalType": "address",
          "name": "approver",
          "type": "address"
        }
      ],
      "name": "ERC721InvalidApprover",
      "type": "error"
    },
    {
      "inputs": [
        {
          "internalType": "address",
          "name": "operator",
          "type": "address"
        }
      ],
      "name": "ERC721InvalidOperator",
      "type": "error"
    },
    {
      "inputs": [
        {
          "internalType": "address",
          "name": "owner",
          "type": "address"
        }
      ],
      "name": "ERC721InvalidOwner",
      "type": "error"
    },
    {
      "inputs": [
        {
          "internalType": "address",
          "name": "receiver",
          "type": "address"
        }
      ],
      "name": "ERC721InvalidReceiver",
      "type": "error"
    },
    {
      "inputs": [
        {
          "internalType": "address",
          "name": "sender",
          "type": "address"
        }
      ],
      "name": "ERC721InvalidSender",
      "type": "error"
    },
    {
      "inputs": [
        {
          "internalType": "uint256",
          "name": "tokenId",
          "type": "uint256"
        }
      ],
      "name": "ERC721NonexistentToken",
      "type": "error"
    },
    {
      "inputs": [
        {
          "internalType": "address",
          "name": "owner",
          "type": "address"
        }
      ],
      "name": "OwnableInvalidOwner",
      "type": "error"
    },
    {
      "inputs": [
        {
          "internalType": "address",
          "name": "account",
          "type": "address"
        }
      ],
      "name": "OwnableUnauthorizedAccount",
      "type": "error"
    },
    {
      "anonymous": false,
      "inputs": [
        {
          "indexed": true,
          "internalType": "address",
          "name": "owner",
          "type": "address"
        },
        {
          "indexed": true,
          "internalType": "address",
          "name": "approved",
          "type": "address"
        },
        {
          "indexed": true,
          "internalType": "uint256",
          "name": "tokenId",
          "type": "uint256"
        }
      ],
      "name": "Approval",
      "type": "event"
    },
    {
      "anonymous": false,
      "inputs": [
        {
          "indexed": true,
          "internalType": "address",
          "name": "owner",
          "type": "address"
        },
        {
          "indexed": true,
          "internalType": "address",
          "name": "operator",
          "type": "address"
        },
        {
          "indexed": false,
          "internalType": "bool",
          "name": "approved",
          "type": "bool"
        }
      ],
      "name": "ApprovalForAll",
      "type": "event"
    },
    {
      "anonymous": false,
      "inputs": [
        {
          "indexed": true,
          "internalType": "address",
          "name": "to",
          "type": "address"
        },
        {
          "indexed": true,
          "internalType": "uint256",
          "name": "tokenId",
          "type": "uint256"
        },
        {
          "indexed": true,
          "internalType": "string",
          "name": "dappId",
          "type": "string"
        },
        {
          "indexed": false,
          "internalType": "string",
          "name": "tokenURI",
          "type": "string"
        }
      ],
      "name": "ArtBadgeMinted",
      "type": "event"
    },
    {
      "anonymous": false,
      "inputs": [
        {
          "indexed": false,
          "internalType": "uint256",
          "name": "_fromTokenId",
          "type": "uint256"
        },
        {
          "indexed": false,
          "internalType": "uint256",
          "name": "_toTokenId",
          "type": "uint256"
        }
      ],
      "name": "BatchMetadataUpdate",
      "type": "event"
    },
    {
      "anonymous": false,
      "inputs": [
        {
          "indexed": false,
          "internalType": "uint256",
          "name": "_tokenId",
          "type": "uint256"
        }
      ],
      "name": "MetadataUpdate",
      "type": "event"
    },
    {
      "anonymous": false,
      "inputs": [
        {
          "indexed": true,
          "internalType": "address",
          "name": "previousOwner",
          "type": "address"
        },
        {
          "indexed": true,
          "internalType": "address",
          "name": "newOwner",
          "type": "address"
        }
      ],
      "name": "OwnershipTransferred",
      "type": "event"
    },
    {
      "anonymous": false,
      "inputs": [
        {
          "indexed": true,
          "internalType": "address",
          "name": "from",
          "type": "address"
        },
        {
          "indexed": true,
          "internalType": "address",
          "name": "to",
          "type": "address"
        },
        {
          "indexed": true,
          "internalType": "uint256",
          "name": "tokenId",
          "type": "uint256"
        }
      ],
      "name": "Transfer",
      "type": "event"
    },
    {
      "inputs": [
        {
          "internalType": "address",
          "name": "to",
          "type": "address"
        },
        {
          "internalType": "uint256",
          "name": "tokenId",
          "type": "uint256"
        }
      ],
      "name": "approve",
      "outputs": [],
      "stateMutability": "nonpayable",
      "type": "function"
    },
    {
      "inputs": [
        {
          "internalType": "address",
          "name": "owner",
          "type": "address"
        }
      ],
      "name": "balanceOf",
      "outputs": [
        {
          "internalType": "uint256",
          "name": "",
          "type": "uint256"
        }
      ],
      "stateMutability": "view",
      "type": "function"
    },
    {
      "inputs": [],
      "name": "baseURI",
      "outputs": [
        {
          "internalType": "string",
          "name": "",
          "type": "string"
        }
      ],
      "stateMutability": "view",
      "type": "function"
    },
    {
      "inputs": [
        {
          "internalType": "address[]",
          "name": "recipients",
          "type": "address[]"
        },
        {
          "internalType": "string[]",
          "name": "dappIds",
          "type": "string[]"
        },
        {
          "internalType": "string[]",
          "name": "tokenURIs",
          "type": "string[]"
        }
      ],
      "name": "batchMint",
      "outputs": [
        {
          "internalType": "uint256[]",
          "name": "",
          "type": "uint256[]"
        }
      ],
      "stateMutability": "nonpayable",
      "type": "function"
    },
    {
      "inputs": [
        {
          "internalType": "string",
          "name": "",
          "type": "string"
        }
      ],
      "name": "dappTokenCount",
      "outputs": [
        {
          "internalType": "uint256",
          "name": "",
          "type": "uint256"
        }
      ],
      "stateMutability": "view",
      "type": "function"
    },
    {
      "inputs": [
        {
          "internalType": "uint256",
          "name": "tokenId",
          "type": "uint256"
        }
      ],
      "name": "getApproved",
      "outputs": [
        {
          "internalType": "address",
          "name": "",
          "type": "address"
        }
      ],
      "stateMutability": "view",
      "type": "function"
    },
    {
      "inputs": [
        {
          "internalType": "uint256",
          "name": "tokenId",
          "type": "uint256"
        }
      ],
      "name": "getDappId",
      "outputs": [
        {
          "internalType": "string",
          "name": "",
          "type": "string"
        }
      ],
      "stateMutability": "view",
      "type": "function"
    },
    {
      "inputs": [
        {
          "internalType": "string",
          "name": "dappId",
          "type": "string"
        }
      ],
      "name": "getDappTokenCount",
      "outputs": [
        {
          "internalType": "uint256",
          "name": "",
          "type": "uint256"
        }
      ],
      "stateMutability": "view",
      "type": "function"
    },
    {
      "inputs": [
        {
          "internalType": "address",
          "name": "owner",
          "type": "address"
        },
        {
          "internalType": "address",
          "name": "operator",
          "type": "address"
        }
      ],
      "name": "isApprovedForAll",
      "outputs": [
        {
          "internalType": "bool",
          "name": "",
          "type": "bool"
        }
      ],
      "stateMutability": "view",
      "type": "function"
    },
    {
      "inputs": [
        {
          "internalType": "address",
          "name": "to",
          "type": "address"
        },
        {
          "internalType": "string",
          "name": "dappId",
          "type": "string"
        },
        {
          "internalType": "string",
          "name": "tokenURI",
          "type": "string"
        }
      ],
      "name": "mint",
      "outputs": [
        {
          "internalType": "uint256",
          "name": "",
          "type": "uint256"
        }
      ],
      "stateMutability": "nonpayable",
      "type": "function"
    },
    {
      "inputs": [],
      "name": "name",
      "outputs": [
        {
          "internalType": "string",
          "name": "",
          "type": "string"
        }
      ],
      "stateMutability": "view",
      "type": "function"
    },
    {
      "inputs": [],
      "name": "owner",
      "outputs": [
        {
          "internalType": "address",
          "name": "",
          "type": "address"
        }
      ],
      "stateMutability": "view",
      "type": "function"
    },
    {
      "inputs": [
        {
          "internalType": "uint256",
          "name": "tokenId",
          "type": "uint256"
        }
      ],
      "name": "ownerOf",
      "outputs": [
        {
          "internalType": "address",
          "name": "",
          "type": "address"
        }
      ],
      "stateMutability": "view",
      "type": "function"
    },
    {
      "inputs": [],
      "name": "renounceOwnership",
      "outputs": [],
      "stateMutability": "nonpayable",
      "type": "function"
    },
    {
      "inputs": [
        {
          "internalType": "address",
          "name": "from",
          "type": "address"
        },
        {
          "internalType": "address",
          "name": "to",
          "type": "address"
        },
        {
          "internalType": "uint256",
          "name": "tokenId",
          "type": "uint256"
        }
      ],
      "name": "safeTransferFrom",
      "outputs": [],
      "stateMutability": "nonpayable",
      "type": "function"
    },
    {
      "inputs": [
        {
          "internalType": "address",
          "name": "from",
          "type": "address"
        },
        {
          "internalType": "address",
          "name": "to",
          "type": "address"
        },
        {
          "internalType": "uint256",
          "name": "tokenId",
          "type": "uint256"
        },
        {
          "internalType": "bytes",
          "name": "data",
          "type": "bytes"
        }
      ],
      "name": "safeTransferFrom",
      "outputs": [],
      "stateMutability": "nonpayable",
      "type": "function"
    },
    {
      "inputs": [
        {
          "internalType": "address",
          "name": "operator",
          "type": "address"
        },
        {
          "internalType": "bool",
          "name": "approved",
          "type": "bool"
        }
      ],
      "name": "setApprovalForAll",
      "outputs": [],
      "stateMutability": "nonpayable",
      "type": "function"
    },
    {
      "inputs": [
        {
          "internalType": "string",
          "name": "baseTokenURI",
          "type": "string"
        }
      ],
      "name": "setBaseURI",
      "outputs": [],
      "stateMutability": "nonpayable",
      "type": "function"
    },
    {
      "inputs": [
        {
          "internalType": "bytes4",
          "name": "interfaceId",
          "type": "bytes4"
        }
      ],
      "name": "supportsInterface",
      "outputs": [
        {
          "internalType": "bool",
          "name": "",
          "type": "bool"
        }
      ],
      "stateMutability": "view",
      "type": "function"
    },
    {
      "inputs": [],
      "name": "symbol",
      "outputs": [
        {
          "internalType": "string",
          "name": "",
          "type": "string"
        }
      ],
      "stateMutability": "view",
      "type": "function"
    },
    {
      "inputs": [
        {
          "internalType": "uint256",
          "name": "",
          "type": "uint256"
        }
      ],
      "name": "tokenToDapp",
      "outputs": [
        {
          "internalType": "string",
          "name": "",
          "type": "string"
        }
      ],
      "stateMutability": "view",
      "type": "function"
    },
    {
      "inputs": [
        {
          "internalType": "uint256",
          "name": "tokenId",
          "type": "uint256"
        }
      ],
      "name": "tokenURI",
      "outputs": [
        {
          "internalType": "string",
          "name": "",
          "type": "string"
        }
      ],
      "stateMutability": "view",
      "type": "function"
    },
    {
      "inputs": [],
      "name": "totalSupply",
      "outputs": [
        {
          "internalType": "uint256",
          "name": "",
          "type": "uint256"
        }
      ],
      "stateMutability": "view",
      "type": "function"
    },
    {
      "inputs": [
        {
          "internalType": "address",
          "name": "from",
          "type": "address"
        },
        {
          "internalType": "address",
          "name": "to",
          "type": "address"
        },
        {
          "internalType": "uint256",
          "name": "tokenId",
          "type": "uint256"
        }
      ],
      "name": "transferFrom",
      "outputs": [],
      "stateMutability": "nonpayable",
      "type": "function"
    },
    {
      "inputs": [
        {
          "internalType": "address",
          "name": "newOwner",
          "type": "address"
        }
      ],
      "name": "transferOwnership",
      "outputs": [],
      "stateMutability": "nonpayable",
      "type": "function"
    }
  ],
  "bytecode": "0x60806040523480156200001157600080fd5b5060405162001f8238038062001f828339810160408190526200003491620001c1565b3383836000620000458382620002e1565b506001620000548282620002e1565b5050506001600160a01b0381166200008657604051631e4fbdf760e01b81526000600482015260240160405180910390fd5b6200009181620000aa565b506009620000a08282620002e1565b50505050620003ad565b600780546001600160a01b038381166001600160a01b0319831681179093556040519116919082907f8be0079c531659141344cd1fd0a4f28419497f9722a3daafe3b4186f6b6457e090600090a35050565b634e487b7160e01b600052604160045260246000fd5b600082601f8301126200012457600080fd5b81516001600160401b0380821115620001415762000141620000fc565b604051601f8301601f19908116603f011681019082821181831017156200016c576200016c620000fc565b816040528381526020925086838588010111156200018957600080fd5b600091505b83821015620001ad57858201830151818301840152908201906200018e565b600093810190920192909252949350505050565b600080600060608486031215620001d757600080fd5b83516001600160401b0380821115620001ef57600080fd5b620001fd8783880162000112565b945060208601519150808211156200021457600080fd5b620002228783880162000112565b935060408601519150808211156200023957600080fd5b50620002488682870162000112565b9150509250925092565b600181811c908216806200026757607f821691505b6020821081036200028857634e487b7160e01b600052602260045260246000fd5b50919050565b601f821115620002dc57600081815260208120601f850160051c81016020861015620002b75750805b601f850160051c820191505b81811015620002d857828155600101620002c3565b5050505b505050565b81516001600160401b03811115620002fd57620002fd620000fc565b62000315816200030e845462000252565b846200028e565b602080601f8311600181146200034d5760008415620003345750858301515b600019600386901b1c1916600185901b178555620002d8565b600085815260208120601f198616915b828110156200037e578886015182559484019460019091019084016200035d565b50858210156200039d5787850151600019600388901b60f8161c191681555b5050505050600190811b01905550565b611bc580620003bd6000396000f3fe608060405234801561001057600080fd5b50600436106101735760003560e01c8063715018a6116100de5780639965e30311610097578063c87b56dd11610071578063c87b56dd1461032c578063dab45bbd1461033f578063e985e9c51461035f578063f2fde38b1461037257600080fd5b80639965e303146102f3578063a22cb46514610306578063b88d4fde1461031957600080fd5b8063715018a6146102995780638261219b146102a15780638c9bce91146102b45780638da5cb5b146102c757806395d89b41146102d857806399071190146102e057600080fd5b806323b872dd1161013057806323b872dd1461023257806342842e0e1461024557806355f804b3146102585780636352211e1461026b5780636c0360eb1461027e57806370a082311461028657600080fd5b806301ffc9a71461017857806306fdde03146101a0578063081812fc146101b5578063095ea7b3146101e057806318160ddd146101f55780632297198c14610207575b600080fd5b61018b610186366004611412565b610385565b60405190151581526020015b60405180910390f35b6101a86103b0565b604051610197919061147f565b6101c86101c3366004611492565b610442565b6040516001600160a01b039091168152602001610197565b6101f36101ee3660046114c7565b61046b565b005b6008545b604051908152602001610197565b6101f96102153660046115b0565b8051602081830181018051600a8252928201919093012091525481565b6101f36102403660046115e5565b61047a565b6101f36102533660046115e5565b61050a565b6101f36102663660046115b0565b61052a565b6101c8610279366004611492565b61053e565b6101a8610549565b6101f9610294366004611621565b610558565b6101f36105a0565b6101f96102af3660046115b0565b6105b4565b6101a86102c2366004611492565b6105dc565b6007546001600160a01b03166101c8565b6101a86106d8565b6101f96102ee36600461163c565b6106e7565b6101a8610301366004611492565b610867565b6101f36103143660046116b0565b610901565b6101f36103273660046116ec565b61090c565b6101a861033a366004611492565b610924565b61035261034d36600461181c565b610a28565b60405161019791906118f6565b61018b61036d36600461193a565b610b63565b6101f3610380366004611621565b610b91565b60006001600160e01b03198216632483248360e11b14806103aa57506103aa82610bcf565b92915050565b6060600080546103bf9061196d565b80601f01602080910402602001604051908101604052809291908181526020018280546103eb9061196d565b80156104385780601f1061040d57610100808354040283529160200191610438565b820191906000526020600020905b81548152906001019060200180831161041b57829003601f168201915b5050505050905090565b600061044d82610c1f565b506000828152600460205260409020546001600160a01b03166103aa565b610476828233610c58565b5050565b6001600160a01b0382166104a957604051633250574960e11b8152600060048201526024015b60405180910390fd5b60006104b6838333610c65565b9050836001600160a01b0316816001600160a01b031614610504576040516364283d7b60e01b81526001600160a01b03808616600483015260248201849052821660448201526064016104a0565b50505050565b6105258383836040518060200160405280600081525061090c565b505050565b610532610d5e565b600961047682826119ed565b60006103aa82610c1f565b6060600980546103bf9061196d565b60006001600160a01b038216610584576040516322718ad960e21b8152600060048201526024016104a0565b506001600160a01b031660009081526003602052604090205490565b6105a8610d5e565b6105b26000610d8b565b565b6000600a826040516105c69190611aad565b9081526020016040518091039020549050919050565b6000818152600260205260409020546060906001600160a01b031661063a5760405162461bcd60e51b8152602060048201526014602482015273151bdad95b88191bd95cc81b9bdd08195e1a5cdd60621b60448201526064016104a0565b6000828152600b6020526040902080546106539061196d565b80601f016020809104026020016040519081016040528092919081815260200182805461067f9061196d565b80156106cc5780601f106106a1576101008083540402835291602001916106cc565b820191906000526020600020905b8154815290600101906020018083116106af57829003601f168201915b50505050509050919050565b6060600180546103bf9061196d565b60006001600160a01b03841661073f5760405162461bcd60e51b815260206004820152601b60248201527f43616e6e6f74206d696e7420746f207a65726f2061646472657373000000000060448201526064016104a0565b60008351116107905760405162461bcd60e51b815260206004820152601760248201527f644170702049442063616e6e6f7420626520656d70747900000000000000000060448201526064016104a0565b600880549060006107a083611ac9565b90915550506008546107b28582610ddd565b6107bc8184610e42565b6000818152600b602052604090206107d485826119ed565b50600a846040516107e59190611aad565b908152604051908190036020019020805490600061080283611ac9565b9190505550836040516108159190611aad565b604051809103902081866001600160a01b03167fb39f3a15e696282fd678febc69823bb6315a5ea5e9b5cc08a6af820cc011762686604051610857919061147f565b60405180910390a4949350505050565b600b60205260009081526040902080546108809061196d565b80601f01602080910402602001604051908101604052809291908181526020018280546108ac9061196d565b80156108f95780601f106108ce576101008083540402835291602001916108f9565b820191906000526020600020905b8154815290600101906020018083116108dc57829003601f168201915b505050505081565b610476338383610e92565b61091784848461047a565b6105043385858585610f31565b606061092f82610c1f565b50600082815260066020526040812080546109499061196d565b80601f01602080910402602001604051908101604052809291908181526020018280546109759061196d565b80156109c25780601f10610997576101008083540402835291602001916109c2565b820191906000526020600020905b8154815290600101906020018083116109a557829003601f168201915b5050505050905060006109d3610549565b905080516000036109e5575092915050565b815115610a175780826040516020016109ff929190611af0565b60405160208183030381529060405292505050919050565b610a208461105c565b949350505050565b606082518451148015610a3c575081518351145b610a815760405162461bcd60e51b8152602060048201526016602482015275082e4e4c2f2e640d8cadccee8d040dad2e6dac2e8c6d60531b60448201526064016104a0565b6000845167ffffffffffffffff811115610a9d57610a9d6114f1565b604051908082528060200260200182016040528015610ac6578160200160208202803683370190505b50905060005b8551811015610b5a57610b2b868281518110610aea57610aea611b1f565b6020026020010151868381518110610b0457610b04611b1f565b6020026020010151868481518110610b1e57610b1e611b1f565b60200260200101516106e7565b828281518110610b3d57610b3d611b1f565b602090810291909101015280610b5281611ac9565b915050610acc565b50949350505050565b6001600160a01b03918216600090815260056020908152604080832093909416825291909152205460ff1690565b610b99610d5e565b6001600160a01b038116610bc357604051631e4fbdf760e01b8152600060048201526024016104a0565b610bcc81610d8b565b50565b60006001600160e01b031982166380ac58cd60e01b1480610c0057506001600160e01b03198216635b5e139f60e01b145b806103aa57506301ffc9a760e01b6001600160e01b03198316146103aa565b6000818152600260205260408120546001600160a01b0316806103aa57604051637e27328960e01b8152600481018490526024016104a0565b61052583838360016110c4565b6000828152600260205260408120546001600160a01b0390811690831615610c9257610c928184866111ca565b6001600160a01b03811615610cd057610caf6000856000806110c4565b6001600160a01b038116600090815260036020526040902080546000190190555b6001600160a01b03851615610cff576001600160a01b0385166000908152600360205260409020805460010190555b60008481526002602052604080822080546001600160a01b0319166001600160a01b0389811691821790925591518793918516917fddf252ad1be2c89b69c2b068fc378daa952ba7f163c4a11628f55a4df523b3ef91a4949350505050565b6007546001600160a01b031633146105b25760405163118cdaa760e01b81523360048201526024016104a0565b600780546001600160a01b038381166001600160a01b0319831681179093556040519116919082907f8be0079c531659141344cd1fd0a4f28419497f9722a3daafe3b4186f6b6457e090600090a35050565b6001600160a01b038216610e0757604051633250574960e11b8152600060048201526024016104a0565b6000610e1583836000610c65565b90506001600160a01b03811615610525576040516339e3563760e11b8152600060048201526024016104a0565b6000828152600660205260409020610e5a82826119ed565b506040518281527ff8e1a15aba9398e019f0b49df1a4fde98ee17ae345cb5f6b5e2c27f5033e8ce79060200160405180910390a15050565b6001600160a01b038216610ec457604051630b61174360e31b81526001600160a01b03831660048201526024016104a0565b6001600160a01b03838116600081815260056020908152604080832094871680845294825291829020805460ff191686151590811790915591519182527f17307eab39ab6107e8899845ad3d59bd9653f200f220920489ca2b5937696c31910160405180910390a3505050565b6001600160a01b0383163b1561105557604051630a85bd0160e11b81526001600160a01b0384169063150b7a0290610f73908890889087908790600401611b35565b6020604051808303816000875af1925050508015610fae575060408051601f3d908101601f19168201909252610fab91810190611b72565b60015b611017573d808015610fdc576040519150601f19603f3d011682016040523d82523d6000602084013e610fe1565b606091505b50805160000361100f57604051633250574960e11b81526001600160a01b03851660048201526024016104a0565b805160208201fd5b6001600160e01b03198116630a85bd0160e11b1461105357604051633250574960e11b81526001600160a01b03851660048201526024016104a0565b505b5050505050565b606061106782610c1f565b506000611072610549565b9050600081511161109257604051806020016040528060008152506110bd565b8061109c8461122e565b6040516020016110ad929190611af0565b6040516020818303038152906040525b9392505050565b80806110d857506001600160a01b03821615155b1561119a5760006110e884610c1f565b90506001600160a01b038316158015906111145750826001600160a01b0316816001600160a01b031614155b801561112757506111258184610b63565b155b156111505760405163a9fbf51f60e01b81526001600160a01b03841660048201526024016104a0565b81156111985783856001600160a01b0316826001600160a01b03167f8c5be1e5ebec7d5bd14f71427d1e84f3dd0314c0f7b2291e5b200ac8c7c3b92560405160405180910390a45b505b5050600090815260046020526040902080546001600160a01b0319166001600160a01b0392909216919091179055565b6111d58383836112c1565b610525576001600160a01b03831661120357604051637e27328960e01b8152600481018290526024016104a0565b60405163177e802f60e01b81526001600160a01b0383166004820152602481018290526044016104a0565b6060600061123b83611324565b600101905060008167ffffffffffffffff81111561125b5761125b6114f1565b6040519080825280601f01601f191660200182016040528015611285576020820181803683370190505b5090508181016020015b600019016f181899199a1a9b1b9c1cb0b131b232b360811b600a86061a8153600a850494508461128f57509392505050565b60006001600160a01b03831615801590610a205750826001600160a01b0316846001600160a01b031614806112fb57506112fb8484610b63565b80610a205750506000908152600460205260409020546001600160a01b03908116911614919050565b60008072184f03e93ff9f4daa797ed6e38ed64bf6a1f0160401b83106113635772184f03e93ff9f4daa797ed6e38ed64bf6a1f0160401b830492506040015b6d04ee2d6d415b85acef8100000000831061138f576d04ee2d6d415b85acef8100000000830492506020015b662386f26fc1000083106113ad57662386f26fc10000830492506010015b6305f5e10083106113c5576305f5e100830492506008015b61271083106113d957612710830492506004015b606483106113eb576064830492506002015b600a83106103aa5760010192915050565b6001600160e01b031981168114610bcc57600080fd5b60006020828403121561142457600080fd5b81356110bd816113fc565b60005b8381101561144a578181015183820152602001611432565b50506000910152565b6000815180845261146b81602086016020860161142f565b601f01601f19169290920160200192915050565b6020815260006110bd6020830184611453565b6000602082840312156114a457600080fd5b5035919050565b80356001600160a01b03811681146114c257600080fd5b919050565b600080604083850312156114da57600080fd5b6114e3836114ab565b946020939093013593505050565b634e487b7160e01b600052604160045260246000fd5b604051601f8201601f1916810167ffffffffffffffff81118282101715611530576115306114f1565b604052919050565b600067ffffffffffffffff831115611552576115526114f1565b611565601f8401601f1916602001611507565b905082815283838301111561157957600080fd5b828260208301376000602084830101529392505050565b600082601f8301126115a157600080fd5b6110bd83833560208501611538565b6000602082840312156115c257600080fd5b813567ffffffffffffffff8111156115d957600080fd5b610a2084828501611590565b6000806000606084860312156115fa57600080fd5b611603846114ab565b9250611611602085016114ab565b9150604084013590509250925092565b60006020828403121561163357600080fd5b6110bd826114ab565b60008060006060848603121561165157600080fd5b61165a846114ab565b9250602084013567ffffffffffffffff8082111561167757600080fd5b61168387838801611590565b9350604086013591508082111561169957600080fd5b506116a686828701611590565b9150509250925092565b600080604083850312156116c357600080fd5b6116cc836114ab565b9150602083013580151581146116e157600080fd5b809150509250929050565b6000806000806080858703121561170257600080fd5b61170b856114ab565b9350611719602086016114ab565b925060408501359150606085013567ffffffffffffffff81111561173c57600080fd5b8501601f8101871361174d57600080fd5b61175c87823560208401611538565b91505092959194509250565b600067ffffffffffffffff821115611782576117826114f1565b5060051b60200190565b600082601f83011261179d57600080fd5b813560206117b26117ad83611768565b611507565b82815260059290921b840181019181810190868411156117d157600080fd5b8286015b8481101561181157803567ffffffffffffffff8111156117f55760008081fd5b6118038986838b0101611590565b8452509183019183016117d5565b509695505050505050565b60008060006060848603121561183157600080fd5b833567ffffffffffffffff8082111561184957600080fd5b818601915086601f83011261185d57600080fd5b8135602061186d6117ad83611768565b82815260059290921b8401810191818101908a84111561188c57600080fd5b948201945b838610156118b1576118a2866114ab565b82529482019490820190611891565b975050870135925050808211156118c757600080fd5b6118d38783880161178c565b935060408601359150808211156118e957600080fd5b506116a68682870161178c565b6020808252825182820181905260009190848201906040850190845b8181101561192e57835183529284019291840191600101611912565b50909695505050505050565b6000806040838503121561194d57600080fd5b611956836114ab565b9150611964602084016114ab565b90509250929050565b600181811c9082168061198157607f821691505b6020821081036119a157634e487b7160e01b600052602260045260246000fd5b50919050565b601f82111561052557600081815260208120601f850160051c810160208610156119ce5750805b601f850160051c820191505b81811015611053578281556001016119da565b815167ffffffffffffffff811115611a0757611a076114f1565b611a1b81611a15845461196d565b846119a7565b602080601f831160018114611a505760008415611a385750858301515b600019600386901b1c1916600185901b178555611053565b600085815260208120601f198616915b82811015611a7f57888601518255948401946001909101908401611a60565b5085821015611a9d5787850151600019600388901b60f8161c191681555b5050505050600190811b01905550565b60008251611abf81846020870161142f565b9190910192915050565b600060018201611ae957634e487b7160e01b600052601160045260246000fd5b5060010190565b60008351611b0281846020880161142f565b835190830190611b1681836020880161142f565b01949350505050565b634e487b7160e01b600052603260045260246000fd5b6001600160a01b0385811682528416602082015260408101839052608060608201819052600090611b6890830184611453565b9695505050505050565b600060208284031215611b8457600080fd5b81516110bd816113fc56fea2646970667358221220689e0fee08ffc4dcf706851f5aea574c105517b3641132a3f109de1e8124306b64736f6c63430008140033",
  "linkReferences": {},
  "deployedLinkReferences": {}
}